:040000008A152A280B
:10000800FF00030E83018316BC000A08BF008A01A3
:1000180070088312AF007108AE007208AD00730853
:10002800AC007408AB007508AA007608A900770828
:10003800A8007808A7007908A6007A08A5007B0818
:10004800A4007C08A3007D08A2000B1E2F288B1C8F
:100058002F2810268B100B1C3F280616061E362844
:1000680055260B10071087108616861E3D28672612
:100078000B10071087100B1D5D2801308316A9028D
:10008800031CAA0300302A06031D4C280030290649
:10009800031D5C289030E2000130E300FA30E400F0
:1000A800E50179267A30A9000030AA00831281017F
:1000B8000B1183122F08F0002E08F1002D08F20012
:1000C8002C08F3002B08F4002A08F5002908F6008C
:1000D8002808F7002708F8002608F9002508FA007C
:1000E8002408FB002308FC002208FD0083163F08B3
:0C00F8008A003C0E8300FF0E7F0E090002
:100104000F3083120313FC004730FD00FD0B8828D9
:0A011400FC0B882800000000080022
:0E011E00213083120313FD00FD0B932808000F
:06012C00000000000800C5
:1001320083160313E11BA02883128811A2288312BD
:1001420088158316611BA82883120811AA28831216
:1001520008158316E11AB02883128810B228831278
:1001620088148316611AB82883120810BA288312D9
:10017200081483162818C02883120816C22883126E
:1001820008128816962088128316E119CB2883124A
:100192008811CD288312881583166119D3288312FA
:1001A2000811D528831208158316E118DB2883125B
:1001B2008810DD288312881483166118E3288312BD
:1001C2000810E5288312081483162818EB288312D6
:1001D2000816ED28831208128816962088128316B4
:0C01E200281CF5288220F6288F20080039
:0801EE00FA1FF21300300800B3
:1001F6008316031328106008E1009920831628143B
:020206000800EE
:1002080083120313F801F9011030FC00710DF80D89
:10021800F90D7408F8027508031C750FF902031824
:100228001C297408F80775080318750FF9070310D7
:0A023800F00DF10DFC0B0A2908007F
:0E024200F201F101F001F801F30100300800B3
:100250007B15FB1F32290130F300F201F101F0019F
:08026000FA0DF20CFF3008005A
:100268000E3083120313FD00FD0B3829000008002F
:10027800831603178C1C422900003C2903135B08D2
:10028800831203178D00831603135C088312031768
:100298008C0083168C130C150B08F0008B1355304B
:1002A8008D00AA308D008C14F01B5C298B135D29FE
:0602B8008B170C11080079
:1002BE0083160313EE03EE036E08003C03186C293D
:1002CE00EE030000000000006329000000000000A3
:0602DE0000000000080012
:1002E400FB14FB1F7C29FF30F300F200F100F00047
:0802F400FA0DF20CFF300800C6
:1002FC007B14FB1F8929F201FA1FFF30F200F10079
:0A030C00F000FA0DF20CFF300800BB
:10031600A0017208031DA0297108F2007008F100FF
:10032600F001A0157208031DA0297108F200F10161
:10033600A011201672080319AE292008F302031D26
:10034600031CB2290310F21BB629F00DF10DF20DB4
:10035600F30BA629B2290130FC002121B92902306C
:0E036600FC002821B9290430FC00F720080013
:1003740083120313FB01FA01F901F801A101730DC2
:10038400F80D7408F8027508031C750FF902760855
:10039400031C760FFA027708031C770FFB02000197
:1003A400031C0130A102F30D0730FC00730DF80D9E
:1003B400F90DFA0DFB0DA10D7408731CF329F80255
:1003C4007508031C750FF9027608031C760FFA02F0
:1003D4007708031C770FFB020001031C0130A10204
:1003E400042AF80775080318750FF9077608031827
:1003F400760FFA0777080318770FFB070001031835
:100404000130A107F30DFC0BD829720DF80DF90D7D
:10041400FA0DFB0DA10D7408731C222AF80275084D
:10042400031C750FF9027608031C760FFA0277088D
:10043400031C770FFB020001031C0130A102332AC5
:10044400F80775080318750FF90776080318760F6F
:10045400FA0777080318770FFB0700010318013028
:10046400A107F20D0730FC00720DF80DF90DFA0D1D
:10047400FB0DA10D7408721C512AF8027508031CA7
:10048400750FF9027608031C760FFA027708031C2D
:10049400770FFB020001031C0130A102622AF80756
:1004A40075080318750FF90776080318760FFA070D
:1004B40077080318770FFB07000103180130A10721
:1004C400F20DFC0B362A710DF80DF90DFA0DFB0D2A
:1004D400A10D7408721C802AF8027508031C750F9C
:1004E400F9027608031C760FFA027708031C770FCB
:1004F400FB020001031C0130A102912AF8077508D0
:100504000318750FF90776080318760FFA077708AA
:100514000318770FFB07000103180130A107F10D41
:100524000730FC00710DF80DF90DFA0DFB0DA10D4E
:100534007408711CAF2AF8027508031C750FF902C0
:100544007608031C760FFA027708031C770FFB0268
:100554000001031C0130A102C02AF8077508031822
:10056400750FF90776080318760FFA07770803184A
:10057400770FFB07000103180130A107F10DFC0BF5
:10058400942A700DF80DF90DFA0DFB0DA10D7408E8
:10059400711CDE2AF8027508031C750FF90276082F
:1005A400031C760FFA027708031C770FFB02000185
:1005B400031C0130A102EF2AF80775080318750F10
:1005C400F90776080318760FFA0777080318770FE8
:1005D400FB07000103180130A107F00D0730FC00F0
:1005E400700DF80DF90DFA0DFB0DA10D7408701CBA
:1005F4000D2BF8027508031C750FF9027608031C0D
:10060400760FFA027708031C770FFB020001031C24
:100614000130A1021E2BF80775080318750FF9079E
:1006240076080318760FFA0777080318770FFB0785
:10063400000103180130A107F00DFC0BF22A701819
:10064400312B7408F80775080318750FF907760835
:100654000318760FFA0777080318770FFB070800CB
:10066400831603135B08831203178D0083168C1300
:0A0674000C1483120C08F0000800BB
:0E067E00831203136F088A006E0882000800C2
:10068C00582B803083160313DB006B2BC030DB0040
:10069C006B2B9430DB006B2BD430DB006B2B80305E
:1006AC00DB006B2B831603135B08013A0319472BF2
:1006BC005B08023A03194C2B5B08033A03194F2BC6
:1006CC005B08043A0319522B552B5C03F0005B08B2
:1006DC00F0077008DB007008E100992083162810E1
:1006EC00DE015E085D07840000080319852B5E0897
:1006FC005D0784000008E000FB20DE0A772B28143D
:02070C000800E3
:10070E00403083120313F0001F30F100F201F301A9
:02071E000800D1
:10072000831203132230FC00F801F901FA01FB01E6
:10073000FC030319C62B0310FB0CFA0CF90CF80C84
:10074000F30CF20CF10CF00C031C982BFC030319B6
:10075000B82B7408F80775080318750FF9077608A1
:100760000318760FFA0777080318770FFB079C2BFF
:100770007408F80775080318750FF9077608031849
:0E078000760FFA0777080318770FFB070800BB
:10078E0083160313DE0105305E020318D52B5E08B7
:10079E005D07840020308000DE0ACA2B5E085D07EC
:1007AE0084008001DE035E085D07DF000A30F4007E
:1007BE00F5015B08F0005C08F10004217808F000F8
:1007CE007908F1003030F00783165F088400700856
:1007DE0080000A30F400F5015B08F0005C08F100BF
:1007EE00042170088316DB007108DC0000307106EE
:1007FE00031D032C00307006031D062C082CDE038F
:04080E00DA2B0800D9
:1008120083120313FB0173080319462C7208FA00B2
:10082200F2178E30F302F31F492CF309F30A083052
:100832007302031C2C2CF300F10D7208F100F2017B
:1008420008307302031C2C2CF300F10DF101730824
:10085200031D0310342C73080319342C0310F20CFB
:10086200F10CF30B2F2C7B1B711C3E2C031C3E2C1A
:10087200F10A0319F20AF21B552CFA1F582CF2093D
:10088200F109F10A0319F20A582CF201F101582C6C
:100892007B14FB1F5B2CF201FA1F5B2CFF30F20072
:1008A200F100FA0DF20C5B2C0130FC005D2C0030E3
:1008B200FC005D2CFF30FC00FC080319612C7E213A
:0A08C2007108F0007208F100080050
:1008CC0083160313D601D701D801D9014008D600ED
:1008DC004108D70080304306F00080305706700284
:1008EC00031D7A2C56084202031C8F2C5808C63E56
:1008FC00DA005608DB003223831603135A088400EF
:10090C0070088000D80A0319D90AD60A0319D70A25
:10091C00702C4408DB004508DC00C630DD004623A3
:10092C000630FC003030FD00FD0B9A2CFC0B9A2C91
:04093C0000000800AF
:1009400083160313C701C801C901CA014008C700C3
:100950004108C80080304306F0008030480670022D
:10096000031DB42C47084202031CC62C4708DB00B9
:100970004908460784000008DC003C210313C90A2B
:100980000319CA0AC70A0319C80AAA2C4408DB00BB
:100990004508DC004608DD0046230630FC00303008
:0E09A000FD00FD0BD12CFC0BD12C000008003B
:1009AE0083120313FA017308031D7A147708031DCB
:1009BE00FA147A080319232D033A0319EE2C7A1828
:1009CE00EB2CF61F212D1F2DF21F1F2D212D72082E
:1009DE008039FA00F21376088039F6137A06031975
:1009EE00FC2C7A0803191F2D212D77087302031989
:1009FE00032D031C172D1B2D7608720203190A2DC9
:100A0E00031C172D1B2D750871020319112D031CC4
:100A1E00172D1B2D740870020319232D03181B2D7F
:100A2E00FA080319212D1F2DFA0803191F2D212D48
:100A3E00031408000310080003140315080008002F
:100A4E0083120313FB017308031D770803197E2D10
:100A5E0072087606FA007708F3077E30031C3B2DEA
:100A6E00F3020318812D3E2DF302031C842D720810
:100A7E00F8007108FC007008FD00F817F617031057
:100A8E00F201F101F0011830A0007D1C582D740800
:100A9E00F00775080318750FF10776080318760F1F
:100AAE00F207F20CF10CF00CF80CFC0CFD0C031020
:100ABE00A00B4C2DF21B682DF80DF00DF10DF20D63
:100ACE00F3037B1B701C7A2DF81F7A2DF00A031985
:100ADE00F10A0319F20A031D7A2DF20CF10CF00C37
:100AEE00F30A0319812DFA1FF2130030862D0130FF
:100AFE002121862D02307221862D043028210000FE
:020B0E000800DD
:100B1000831203137008F8007108F000F101F2016C
:100B2000F301FB01FC019630F300FA017008F100BB
:0C0B30007808F000F801F2018B210800A9
:100B3C0083160313881208120810881008118811E4
:100B4C00831288120812881108118810081082204C
:100B5C0082208220881408148816962088128220FD
:100B6C008816962088128220881696208812822059
:100B7C0008108816962088128220881696208812D3
:100B8C0088108815881696208812822088110814DF
:100B9C0088169620881208108816962088128220B3
:100BAC00881696208812081488169620881282209F
:100BBC0008108816962088128815081588140814B1
:0E0BCC008816962088128220831628140800AE
:100BDA00FF3083160313AE00FF30AF00FF30B000C2
:100BEA00FF3083129F01C0309F043009F000700863
:0E0BFA0083169F051F179F1783121F140800F4
:100C08003F238A110A128000840AEE0A0319EF0AA8
:080C1800F003031D042E080087
:100C200083160313B101B20180303206F000803028
:100C30007002031D1D2E033031020318522E831241
:100C400008170430FB000C30FC003330FD00FD0BB6
:100C5000272EFC0B272EFB0B272E0000000008136D
:100C60000430FB000C30FC003330FD00FD0B362E51
:100C7000FC0B362EFB0B362E0000000005140B304B
:100C8000FB002630FC005D30FD00FD0B452EFC0B0B
:100C9000452EFB0B452E000000008316B10A0319F8
:0A0CA000B20A142E8312051008009A
:100CAA0083120313071487101530FB004B30FC0026
:100CBA00BE30FD00FD0B5F2EFC0B5F2EFB0B5F2E83
:040CCA00000008001E
:100CCE0083120313071087141530FB004B30FC0002
:100CDE00BE30FD00FD0B712EFC0B712EFB0B712E29
:040CEE0000000800FA
:100CF2008723E830F4000330F500F601F701902372
:100D020070088316EA007108EB007208EC007308A1
:100D1200ED006208F4006308F500F601F701BA215C
:100D220070088316EA007108EB007208EC00730881
:100D3200ED007008F5007108F6007208F7007308FC
:100D4200F800F80CF70CF60CF50CF813F80CF70C8D
:100D5200F60CF50CF8137508F0007608F100770828
:100D6200F2007808F300F30CF20CF10CF00CF31320
:100D72007008E6007108E700872383166408F40010
:100D82006508F500F601F701902383166608F9005D
:100D92006708FA00FB01FC010330F8007908F4004F
:100DA2007A08F5007B08F6007C08F700780803193A
:100DB200E12EF40DF50DF60DF70D7410FF3ED82E51
:100DC200BA2170088316EA007108EB007208EC0081
:100DD2007308ED000A30F4000030F5006608F000F8
:100DE2006708F100042170088316E6007108E70025
:100DF20000307102031DFF2E033070020318022F10
:100E02004F2F3B0884006D08003C031D122F6C0815
:100E1200003C031D122F6B08003C031D122F6A08B1
:100E2200003C03184D2F3D08800467080319292F41
:100E3200E801E90100306902031D212F67086802F9
:100E42000318292FEE015F21E80A0319E90A1B2F73
:100E52006608EE005F213E08800567080319412FEE
:100E6200E801E90100306902031D392F67086802B1
:100E72000318412FEE015F21E80A0319E90A332F13
:100E82006608EE005F210130EA02031CEB02031C3C
:0E0E9200EC02031CED02042F3E088005080050
:100EA00083160313C501C6014008C7004108C800E6
:100EB00080304106F00080307002031D612F003049
:100EC000400203186F2F0130C5000030C6004008F3
:100ED000003CC7004108031C013EC801C802470886
:100EE000DB004808DC004208DD00C7230630C300F1
:100EF0000030C4004408003C031D802F4308003C20
:100F000003189B2F43084207F20001304302F00010
:100F10000030031C013E4402F100700842078400C7
:100F20000008F00072088400700880000130C302DD
:100F3000031CC4037A2F4208840020308000450837
:100F400046040319B92FC301C401430842078400B2
:100F50000008203A031DB02FC30A0319C40AA52FA5
:100F60000130C302031CC4034308420784002D3030
:040F700080000800F5
:100F7400831603134008BB004108F1000130F00060
:100F840071080319C92FF00D7010FF3EC32F7008AC
:100F9400BD00F0097008BE0080304007840070086E
:0A0FA4008005841370088005080022
:100FC000303084003E3083120313F0002530EE00F1
:100FD0000A30EF000426A03084000830F000D7303B
:0A0FE000EE000730EF0004260800C1
:10100000831203139F01C0309F043009F000700861
:1010100083169F051F179F174008F000F00D7010F2
:10102000F00D7010F00D7010700883129F041F14E3
:101030008A1134218A151F151F1D202800001C2825
:101040001F101E08F100F00183161E08F004003086
:04105000F10408009F
:101054008A11E0278A1583160313061408138312D2
:1010640008138316051083120510831606168616B8
:101074000710871083120710871083168514051133
:101084008312051183168511831285118316881323
:101094008A119E258A158A11ED258A150830831632
:1010A400C0000730C1008A11BA278A150C30E1004C
:1010B4008A1199208A158E3083169F000B168B1780
:1010C40001178B170B168B1501178B178B168112B3
:1010D4000114811401158111831281017A30831660
:1010E400A9000030AA000130DB000130DC00A03090
:1010F400DD008A1146238A150230DB000130DC0052
:101104005E30DD008A1146238A150B30FB00263041
:10111400FC005D30FD00FD0B8D28FC0B8D28FB0BC6
:101124008D28000000000130E1008A1199208A1501
:1011340001308316C00000208A1188258A157008A2
:101144008316B7007108B8007208B9007308BA00B2
:101154003530F4005E30F5007A30F6007D30F7006B
:101164008A1127258A1570088316B3007108B40004
:101174007208B5007308B6007008F4007108F50031
:101184007208F6007308F7000030F0000030F10038
:101194001C30F2008430F3008A11D7248A15013000
:1011A40003180030F00070080319F4280030F4002C
:1011B4000030F5002830F6008430F7008316330839
:1011C400F0003408F1003508F2003608F3008A1103
:1011D400D7248A15013003180030F0007008031971
:1011E400F42805150030F4000030F5001C30F6003A
:1011F4008430F70083163308F0003408F100350812
:10120400F2003608F3008A11D7248A150130031836
:101214000030F000700803192B2983163308F400FA
:101224003408F5003508F6003608F7000030F00001
:101234000030F1001030F2008430F3008A11D7241A
:101244008A15013003180030F000700803192B29A7
:1012540085150030F4000030F5001030F6008430BD
:10126400F70083163308F0003408F1003508F20063
:101274003608F3008A11D7248A1501300318003088
:10128400F0007008031D622983163308F400340843
:10129400F5003508F6003608F7000030F00000309D
:1012A400F1002830F2008430F3008A11D7248A1523
:1012B400013003180030F0007008031D62299229E0
:1012C4008316B101B20180303206F0008030700222
:1012D400031D6E2903303102031892298312081763
:1012E4000230FB000430FC00BA30FD00FD0B78290D
:1012F400FC0B7829FB0B7829000008130230FB0053
:101304000430FC00BA30FD00FD0B8629FC0B862955
:10131400FB0B862900008316B10A0319B20A65295A
:1013240083163308F0003408F1003508F20036085B
:10133400F3008A1109248A1570088316C000710805
:10134400C100AB30C2008A1150278A150130E10078
:101354008A1199208A1501308316DB000130DC00E4
:101364003130DD008A1146238A150230DB00033058
:10137400DC00AB30DD008A1146238A150B30FB00FC
:101384002630FC005D30FD00FD0BC629FC0BC62990
:10139400FB0BC629000000000130E1008A119920EE
:1013A4008A15051185118316C001C1010F30C200D1
:1013B4000030C3000130C4000130C5003E30C60017
:1013C4008A11A0248A151030C0000030C1001F30DB
:1013D400C2000030C3000230C4000130C5004D30EB
:1013E400C6008A11A0248A15C001C1010F30C200B1
:1013F4000030C3000130C4000130C5008A116624E6
:101404008A151030C0000030C1001F30C200003007
:10141400C3000230C4000130C5008A1166248A1555
:101424000630FB001330FC00AD30FD00FD0B182A24
:10143400FC0B182AFB0B182A000000009A28212A0A
:100FAE00433468346E3469347434693472340034C2
:02144A000F345D
:10144C00543465346D3470346534723461347434AE
:0A145C007534723465343A340034FC
:10146600453462346934783461342034313430346C
:0E1476006D346734203432342F344A3400345D
:1014840041347234693463346534703474342034D0
:10149400313430346D346734203433342F344A34A7
:0214A400003412
:1014A600483461347634653420344134203447344A
:1014B6006F346F3464342034443461347934003406
:02400E004A2F37
:00000001FF
